:020000021000EC
:1080000000400020A9020200E5020200E70202008F
:108010000000000000000000000000000000000060
:10802000000000000000000000000000E902020063
:108030000000000000000000EB020200ED02020060
:10804000EF0202006DAC010055FF0100EF020200DB
:10805000EF02020000000000A9000200EF0202008F
:10806000EF020200BDFA010019000200EF02020057
:10807000EF020200EF020200EF020200EF02020034
:10808000EF020200EF020200EF020200EF02020024
:10809000EF02020071F801004DF80100EF0202004A
:1080A000EF020200EF0202000000000000000000EA
:1080B00000000000000000000000000000000000C0
:1080C00010B5064C2378002B07D1054B002B02D0AE
:1080D000044800E000BF0123237010BDB020002041
:1080E00000000000FC6F0200044B10B5002B03D011
:1080F0000349044800E000BF10BDC0460000000076
:10810000B4200020FC6F0200164B002B00D1144B52
:108110009D46402292029A1A924600218B460F46B3
:108120001348144A121A0DF064FE0F4B002B00D0B6
:1081300098470E4B002B00D09847002000210400E8
:108140000D000D48002802D00C4800E000BF0AF0E6
:1081500007F8200029000DF0D2FB09F0EBFFC04624
:1081600000000800004000200000000000000000A7
:10817000A820002038280020000000000000000097
:108180007FB5074905A800F0B9FFC82205A952002C
:10819000044802F035F905A80AF0F2FC07B000BD6A
:1081A000C56F0200BC2100207FB5074905A800F07B
:1081B000A5FFC82205A95200044802F021F905A82C
:1081C0000AF0DEFC07B000BDF8690200BC21002007
:1081D00010B50400034B036040300AF0D1FC2000CE
:1081E00010BDC046A45F0200F0B585B01F000AAB09
:1081F0001B880600029115000393002F1BD0282036
:108200000DF0A8FD6B4604001989039BAAB20093E8
:108210003B000AF054FC336821005B68300098474B
:10822000002806D020000AF061FC20000DF08EFD31
:10823000024805B0F0BD0248FBE7C04616FCFFFF50
:1082400017FCFFFFF0B51E4C85B0200000F03AF996
:108250001C4903A800F052FF1B4D03A978222800F7
:1082600002F05EF9FA2703A80AF08AFC1023174EE1
:10827000BF0000933900164B01223000FFF7B4FF16
:108280001023390000930222124B3000FFF7ACFF9D
:1082900014200DF05FFDDD26E423B6005B00E258FC
:1082A000A15903F083FC80200DF054FD2A00A15950
:1082B00004F024FB00F068FD002005B0F0BDC046CE
:1082C000CC200020FA690200BC2100209C21002063
:1082D00081810100A981010010B5054C200000F04A
:1082E00039F8044A044920000DF029FD10BDC046AC
:1082F000CC20002000200020FD820100CA23144A67
:108300009B0010B5C2501C330400C0180AF038FCA2
:10831000D0239B00E0180AF033FC20009130FF309E
:1083200001F004FB20006930FF3001F0FFFA20006B
:10833000F03001F081FE2000D03002F085FA2000FC
:10834000643007F0C1FA201DFFF742FF200010BD86
:10835000306402001423F0B5040093B00093192296
:108360001821043002F0D2FC2200250026006432DD
:10837000B435132110001092B83607F0B1FA280076
:108380000BF016FE00221E2130000BF0B6FA200082
:10839000D03002F079FA2200F03211920621464ADA
:1083A000119801F06DFE20000027012369301A00AA
:1083B00000971121FF3001F0C5FA2000913000979D
:1083C000012302221A21FF3001F0BCFA2000B9304B
:1083D0001A2301210222FF3002F014FB300001F0C9
:1083E000BDF8E4225200A050300001F007FBE62364
:1083F0005B00E0500100E42220005200D130119BCC
:10840000A2580095FF3001F04BFD2000E13029001B
:108410001C22FF3002F012FE192320000F93013BB3
:108420000E93013B0D93013B0C93013B0B93013BDE
:108430000A93013B0993013B0893013B0793013BDE
:108440000693013B0593013B0493013B0393013BDE
:108450000293013B0193F930013B0822009307216D
:10846000013BFF300BF06AFACA239B00E018290099
:1084700003F0E0FED3239B00E0181D2102F092FBE5
:10848000DD239B00E7501098277003210DF067F95A
:1084900023002200200009499C33A0321C60116097
:1084A0005760074A80305A610221012207F0AEFE70
:1084B000200013B0F0BDC046AC5F02008927020067
:1084C000732702000123F0B506788FB004001E4028
:1084D00000D082E00300D0331800039300F0BEFA0E
:1084E00000F0E4F928200DF035FC050010300AF00A
:1084F000D8FB6C4B18202B600DF02CFC07006A4B4E
:108500000460082231000C300C930D960DF071FCC4
:108510000CA9381D08220DF050FC644BAF607B6144
:108520001223EE60AB802E626E622900039802F087
:108530001FF9002805D028000AF0D8FA28000DF00D
:1085400005FC012322785A49134323702300B433D6
:10855000180005930BF032FD5649049005980BF076
:108560002DFD00250690642000F096FB2F002E00C4
:1085700023006933FF33180007930AF0B2FD002887
:108580002DD1049B002B33D1069B002B30D1DD2550
:108590004949AD00080000F05FFC6359002B1CD175
:1085A00000F098F801000AA800F0A8FD0BA80AF056
:1085B0005EF9CA239B00E018069B0BAA0AA9009348
:1085C000039B03F08DFE0BA80AF0DAFA0AA80AF062
:1085D000D7FACC239B00E35863510FB0F0BD2000C5
:1085E0009130FF300AF07DFD0028CAD0182EC8DC7B
:1085F0002000653039B22AB2FF23FF30013700F086
:10860000FBFDFFB2322000F047FB0136052F02D1FF
:1086100000270135EDB2049B192E06D0002BA7D000
:108620002349059802F09EFC01E0002BF8D1049844
:108630000DF08CFB06980DF089FB1F49080000F037
:108640000BFCCA239B00E3180893DD239B00E3582F
:108650000993002B1ED100F03DF801000AA800F09C
:108660004DFD0BA80AF003F901230BAA0AA90093F8
:108670000898039B03F034FE0BA80AF081FA0AA8BD
:108680000AF07EFACC239B00E3580993DD23099A74
:108690009B00E2502100079AF031089804F006F898
:1086A00066E7C046FD030000FB270200BB2702006F
:1086B000406A02004B6A020000200020BFF34F8F87
:1086C000024B034ADA60BFF34F8FFEE700ED00E094
:1086D0000400FA05F0B58DB005AF19221549380030
:1086E0000DF06BFB0022144B05245A7180225205B9
:1086F000566E0122250001940292039301993000E5
:1087000007F076FF0800029907F0ECFE019B039941
:108710006B430193029B361A6B430293631E2C1B1F
:108720006C433C19225C1C1ECA54E7D108000DB0F2
:10873000F0BDC0465B6A02008A270020F0B597B002
:1087400018220021060010A80DF053FB132110A8D9
:108750000DF044F9032110A80DF00FFA4C4B1B68E3
:10876000002B00D10133DBB202934A4A01230021DE
:108770000BA807F085FC484B9E4200D9002672B634
:10878000464B64211D68464B30000793052407F0D3
:1087900033FF60435030281808900A21300007F05A
:1087A0002BFF0A2108F00EF8614350316918099136
:1087B00030000A2108F006F880236143002450317C
:1087C00069189B010A910193029B002B5DD0002543
:1087D00000272E1F07AB9B190593032C03D1802381
:1087E00000249B01019307AB5B592E4A039363005E
:1087F000D31804930023190006205843049A16182E
:108800007678B4466246039EB25C10269446049A7B
:10881000105C62460641164202D001209840014396
:108820000133092BE8D1C9431F4B059A09011940AF
:108830001268039B934225D1312F23DC00210BA822
:108840000DF05CFAFA23159A1199DB0010680142C9
:108850001BD0013B002BF9D1019B01345B0001933C
:10886000FA230137E4B25B009F42B6D10435102DE4
:10887000AED1074B1B68002BA6D0029F013FFBB275
:108880000293A1E7019B1943D9E7FFF717FFC04601
:1088900048240020F0FF0000E7030000042000202F
:1088A000AA6A0200746A0200F01F0000F8B50023F3
:1088B000124C236009F0FCFF002808D0042120009E
:1088C00009F0F2FF002801D00D4B2360F8BD012212
:1088D000A12704250B4B0C491A602268FF00486051
:1088E0004E68002EFCD0DE591202013D3243002DAD
:1088F000F5D1226001225A60E8E7C04644240020F6
:10890000ED5EBC0B00D00040FCD000400B4B70B5BE
:108910001C68002C10D0656D00F0ACFBA36C002926
:1089200001D1834206D8200009F0F5FF0449200058
:1089300009F0DFFF2C00ECE770BDC046502400209A
:1089400070240020F0B593B007932A4B04AC1E6846
:10895000049005910692002E4AD0274B25886788FF
:108960001C6800230293002C2ED0636D23480393D0
:10897000A36C9AB2A36C1B0C99B2854214D1204807
:10898000824211D1002B01D0B9420BD1029B002BA6
:1089900008D1200009F0BFFF1A49200009F0A9FF03
:1089A00001230293039CDEE7002A01D09542F9D10E
:1089B000002B01D0B942F5D1200009F0ACFF1149DC
:1089C000200009F096FFEDE70F4BEB18012B0FD9B4
:1089D00010233A00009329000C4B08A80AF06FF806
:1089E000336808A99B683000984708A80AF07EF809
:1089F00013B0F0BD4C2400207C240020FE030000B6
:108A0000FF0300007024002002FCFFFF45890100E5
:108A100010B572B60B4B1C68002C08D0200009F072
:108A20007AFF0023E364084B2000E36310BD62B6C5
:108A30005C200DF08FF95C22002104000DF0D9F9C3
:108A4000EFE7C0467424002000400020024B187855
:108A5000012318407047C04690270020F7B5060054
:108A6000FFF7F4FF051E33D11A4C2660FFF7D0FF45
:108A7000194B1A49186009F03CFFFFF7C9FF184B62
:108A80001860184B4363184B8363206800280ED08E
:108A9000C027164E2A00330015490097FFF7A4FBA4
:108AA000009733002A0013492068FFF79DFB0C2034
:108AB0000DF050F90023838083710F4B03600F4B3F
:108AC000836000F0EFFA01230D4A11780B43137015
:108AD000F7BDC0464C2400208024002070240020D4
:108AE00078240020FC3F0020DD2902004589010098
:108AF000FF030000FE030000CC5F02000D890100AF
:108B000090270020F7B506000D00170001930028FC
:108B100002D100242000FEBD0029FAD0FFF778FF23
:108B2000041EF6D0074B019A4363066045608760D8
:108B3000054B002A00D0054BA3630549200009F02E
:108B4000D8FEE7E7FC3F0020A7290200C529020064
:108B500070240020024B1868434258417047C046B9
:108B600070240020002310B504499C006258002A9C
:108B700001D00133F9E76050100010BD58240020E7
:108B8000002310B5044A99008C58844201D0013367
:108B9000F9E70020885010BD5824002010B50024AB
:108BA000084BA200D058002802D003685B689847A1
:108BB0000134062CF4D1044B1B68002B00D120BFDC
:108BC00010BDC0465824002070240020F8B5FFF7DF
:108BD0003DFF00281CD02A4D2C68E36CDA0718D51D
:108BE00002273B43E364274B1E680423F26C3000EA
:108BF0001343F364636BF36309F0B3FE3000716CED
:108C000003F099FF2868C36C3B4201D003F0CDFF0D
:108C1000F8BD1D4F1D4E3A683168002A1ED12960EB
:108C20002A68914208D11B0706D52C60FFF7B6FFD2
:108C30003B68002BFAD02B6029688C42E8D033685F
:108C4000994214D1124B4B63124B8B63200009F0F5
:108C500088FE2968626C4B6C20000DE0206DB842E4
:108C600003D1606D002800D002002A60D8E79C4242
:108C7000ECD1002210004B6C03F01CFFC8E7C0468B
:108C80008024002054240020702400207824002018
:108C9000FC3F0020DD29020070B50500FFF7D6FE7D
:108CA000002803D128000CF05CFF70BD0C4B1C6841
:108CB000E36CDB0706D5FFF7ABFE0A4B1860002814
:108CC00000D0040000F0D6F92D18A564200009F0AA
:108CD00022FE0549200009F00CFEFFF777FFE4E7CC
:108CE000802400205424002050240020F0B51E4B86
:108CF0001E4F1C683B6885B006000391002B30D0E6
:108D0000FFF7A4FE00282CD0E36CDB070ED5FFF79D
:108D10007FFE174B051E186008D009F0FCFD1549B1
:108D2000280009F0E6FD2C00FFF750FF039B200010
:108D30001B043343A36409F0EEFD20000E4909F043
:108D4000D8FD0E4B0024F318012B07D9C023009344
:108D5000039A0B4B31003868FFF746FA200005B044
:108D6000F0BD084CFAE7C046802400204C240020C7
:108D700054240020702400207C24002002FCFFFFEB
:108D80004589010016FCFFFF10B5FFF75FFE0028C4
:108D900009D0054C206809F0BEFD0449206809F09F
:108DA000A8FDFFF713FF10BD8024002074240020CD
:108DB000F7B507000D0000282ED0FFF747FE00286A
:108DC0002CD00724164E3068C36C1C4007D0154ABF
:108DD0002900380009F0B6FD00242000FEBD03F094
:108DE000CCFE02213268D36C1940019103D00321DB
:108DF0008B43D364F1E701242343D3642800B847AD
:108E00003268D36C1900A143D164019C5B07E4D59F
:108E1000280009F0CFFDE0E7034CDEE7034CDCE778
:108E200080240020B529020017FCFFFF16FCFFFF7D
:108E3000020010B5014B12CB12C210BD84240020D9
:108E4000034B1A68034B1A607E225A607047C04673
:108E5000042000208424002070B5114E3278022AAC
:108E60001AD081421AD90C1A072C17D90D000323E6
:108E700005432B4012D172B60A4DD2005051AA18A8
:108E800051608022A4081206144304603278013233
:108E9000327062B6180070BD0348FCE70348FAE779
:108EA000922700208C24002013FCFFFF17FCFFFFFB
:108EB00070B5134C06002378124D002B0CD11249CB
:108EC00012482B70FFF7C8FF114B984202D11E20A9
:108ED000FFF734FC0123237000242B78A34209DD23
:108EE0000C49E300C918300009F07EFD002805D1C7
:108EF0000134F2E71420FFF721FC002070BDC046CA
:108F000091270020922700200038002038280020D8
:108F100017FCFFFF8C24002070B5002819D0104BDF
:108F200010491C7800239C4216DDDA005558854212
:108F300010D28A18526882420CD9041F2368002B71
:108F400002DC1E20FFF7FAFB802322681B06134376
:108F5000236070BD0133E6E71E20FFF7EFFBF8E763
:108F6000922700208C24002070B5051E14DD0B4EC6
:108F70000B4C3368002B02D020680CF06DFCFA21FA
:108F800020680024074B89008361C462694335600F
:108F90000CF06AFC200070BD0348FCE79C24002014
:108FA000CC2400205190010017FCFFFFF8B5114FB1
:108FB00006003D68002D0AD130200CF0CBFE0400E5
:108FC00006F0B2FC0C4BA5612360E5623C600B4DE2
:108FD0002B68002B09D110200CF0BCFE04000CF013
:108FE00004FC20002C600CF0DAFB3000FFF7BCFF23
:108FF000F8BDC046CC240020A8670200C824002089
:10900000014B18687047C0469C24002070B50D4C79
:109010002368002B03D00C4B1B68002B02D10620C9
:10902000FFF7C4FF20680CF0D1FB02000749C3170B
:109030000D684E685219734120680A604B600CF04D
:10904000CBFB70BDC8240020CC240020A820002029
:1090500010B5FFF7DBFF0024054BA200D058002815
:1090600002D003681B68984701340A2CF4D110BD64
:10907000A024002010B5FFF7C9FFFA22034B92008D
:1090800018685968002307F0DDFB10BDA8200020F8
:1090900010B5FFF7BBFF024B1868596810BDC046FA
:1090A000A82000200B4B10B51B680400002B03D038
:1090B000094B1B68002B02D10620FFF777FF002326
:1090C000064A99008858002801D00133F9E78C50EE
:1090D00010BDC046C8240020CC240020A0240020BD
:1090E000002310B5044A99008C58844201D0013302
:1090F000F9E70020885010BDA024002010B504001E
:10910000002902D00B78002B03D1034B23602000F1
:1091100010BD09F03CFDFAE7DC5F0200F8B5040081
:109120000E00150000290AD00B78002B07D0002A6A
:1091300005D0080097B20CF09CFE874203D90B4B78
:1091400023602000F8BD681DFFF7B2FE206009F023
:10915000C2FE23682A005F8023683100181D0CF0CE
:109160002CFE23685D1900232B71EAE7DC5F020007
:10917000014B03607047C046DC5F020010B5054834
:10918000054C206009F0AAFE044A054920000CF0B5
:10919000D6FD10BDDC5F0200D0240020002000209E
:1091A000812B0200084B73B51C680500002C0AD007
:1091B000010026680831082268460CF0FEFD0CCD3F
:1091C00031682000884773BDD4240020014B036020
:1091D0007047C046E45F020010B50400002903D1C7
:1091E000044B0360200010BD0160080009F076FE0A
:1091F000F8E7C046E45F020030B500684488A14249
:109200000CDA8588AA4209DA002907DB002A05DB87
:109210005443401800198371002030BD0048FCE71A
:1092200017FCFFFF10B50368588881420BDA9C8851
:10923000A24208DA002906DB002A04DB50435B184F
:109240001B18987910BD0148FCE7C04617FCFFFFCA
:10925000F0B5070085B00E001D00002921DD002AB1
:109260001FDD002B1DD00468638803938B4200DD53
:109270000391A3880293934200DD029200230634F7
:109280000193019B029A93420EDA29002000039A6F
:109290000CF093FD3B68AD195B88E418019B01332A
:1092A000EEE7024805B0F0BD0020FBE717FCFFFF2A
:1092B000F8B504000D0016001F00002901DB002A8C
:1092C00002DA0E4B2360F8BD100048430630FFF76A
:1092D000EFFD206009F0FFFD23685D8023689E801C
:1092E000002F06D03B00320029002000FFF7B0FF1E
:1092F000E9E7200009F026FDE5E7C046E45F02004B
:10930000F7B506000D1E03D1244B03603000FEBDEF
:1093100000200F000400010001903B78002B1AD0C0
:109320003022524294469C446246092A11D90A2BA3
:109330000AD1019B241801330193A14200DA2100D4
:10934000002004000137E8E70028FBD001340020AA
:10935000F8E70120F6E76A460127928809B212B2BF
:1093600030007F42FFF7A4FF39000A2033689A1DBE
:109370002C78002CCAD02300303B092B08D8FB43A3
:10938000DB173B4043431B19303B1F000135EFE720
:10939000002FFBDB177001320F00F7E7E45F0200DC
:1093A000F0B5040089B006A80E0002921D00FFF778
:1093B0003FFD236802995A88914235DA9B889D4285
:1093C00032DA1F2E30D9079B01939E422CDC0523F5
:1093D000002273430393069B0493039B04999B18F9
:1093E000A03BCB5C00210593AE18029BCF182368ED
:1093F0005888019087420EDA9888B0420BDDDB195D
:1094000010270F41019870431B1805980740781EDC
:1094100087417F429F7101310529E6D10132052A3A
:10942000DBD1002009B0F0BD0048FBE717FCFFFFCF
:10943000F7B50468070063880E1E01931EDD99428C
:1094400018DA0023063400933B68009A9B889A42FE
:1094500012DA019BA1199D1B2A0020000CF0ADFC23
:109460006019310009F051FC3B685B88E418009BEF
:109470000133E8E709F066FC002000E00048FEBD8B
:1094800017FCFFFF10B50548054C206009F026FDCC
:10949000044A054920000CF052FC10BDE45F0200B4
:1094A000D824002000200020FD2C020010B5054C1F
:1094B0000121200009F006FD034A044920000CF0B8
:1094C0003EFC10BDDC24002000200020812E020084
:1094D0000388074A10B50120934208D0834202D086
:1094E0000020DB0703D41E20FFF728F9002010BD61
:1094F000FFFF00000048704716FCFFFF10B5322048
:10950000FFF71CF9004810BD16FCFFFF10B5124C08
:109510000023083482800460416202241422010086
:109520008371847203638386028136310A78C36053
:10953000A243F1342240036143618361C36103624A
:109540000A70020040321370021DD3870133438733
:109550008387C38710BDC04604600200F0B5544F36
:1095600097B03B6806000593002B00D08BE006AC5B
:109570000B331C222121200001F07CFA0EAD0B23BD
:109580001D2222210AA801F075FA0B231B22232198
:10959000280001F06FFA08200CF0DCFB0122059B8B
:1095A000110004900BF092F83A2130000AF08BFD84
:1095B00000281DD0A38812ADAB80A3795C20AB71CD
:1095C0003C4B1293A3681493237B2B73637B6B73C5
:1095D000A37BAB730CF0BEFB0423019336330093E3
:1095E0002A00049B3100040002F02CF83C604AE0A1
:1095F000322130000AF095FD00281CD0A38812AD5E
:10960000AB80A3795C20AB712A4B1293A3681493AF
:10961000237B2B73637B6B73A37BAB730CF09AFB85
:10962000042301932E3300932A00049B310004008D
:1096300002F0A6F9DAE73C2130000AF02DFD0028FF
:109640002CD0AB8812ACA380AB79A420A371194BAA
:109650001293AB6814932B7B23736B7B6373AB7B8D
:10966000A3730CF077FB052305000293013B0193E4
:10967000383300932200049B310001F001FF0E4BB0
:109680003D6044351D600C4B094C1868002802D021
:10969000216809F094FD206817B0F0BD44200CF05B
:1096A00059FB042204990400FFF730FF9EE7C046EF
:1096B000E0240020F45F0200E4240020F0B56149BA
:1096C000C56885B08D4254DA0300022236331B7818
:1096D000134059D104698C4264DA020036321278A0
:1096E000520768D4426901920200019E40328E42C4
:1096F0006FDA010036310978090774D4002B7DD167
:1097000013780293002B16D006000127011DCB8F82
:10971000363601339BB2CB8703963678BC4637404A
:1097200000D188E01D2B06D963469E43039B1E7023
:109730000023CB87137009F01BFC434A0723904298
:1097400076D94249043B8D4272DBC8220133920034
:1097500095426DDC023B8C426ADB013B944267DC44
:1097600001980433884263DB0133904260DC0023BC
:109770005EE0C822002352009542ABDD0300363381
:109780001A7800239207A5D4012306001F0036365D
:1097900032785408A7433C0002279C40BA43224336
:1097A000327097E7C822520094429BDD02003632A5
:1097B0001278520796D406000122363633789F0875
:1097C000BA439700042293431A003A4332700123AC
:1097D00088E7C821019E49008E428FDD01003631A5
:1097E000097809078AD40100012636310B78DF0891
:1097F000BE430827F600BB4333430B701378032B9B
:1098000000D97DE70133DBB21370012B03D10021B6
:10981000031DD98774E7042B00D071E702003632AC
:109820001178033B0B43137000230430C3870B33C1
:10983000180005B0F0BD092B00D87CE7029BCF874C
:10984000013B77E770FEFFFFFF700200E0FCFFFFC7
:1098500070B5C369C1681A68451D8AB00400EB7F02
:10986000114255D0002B58D1EB7F082B0DD9012286
:10987000A379134209D11343A371A188130006A849
:1098800009F019FAFFF7F6FB2062EB7F012B23D8D2
:109890000123A2791A421FD00025A188A5710222B6
:1098A00002A809F008FAA31DDE7F012E14D1FFF7EC
:1098B000E1FB2B00226A801A994100900191019BE3
:1098C000A188AB4203D1174B009A9A4227D90123B2
:1098D000042206A809F0EFF90322A3791340012B13
:1098E00014D1FFF7C7FB0023226A801A99419942DD
:1098F00002D10D4B984209D90223A279A1881343C2
:10990000A3710522012306A809F0D5F90AB070BD9C
:109910000B2BA9D80133EB77A6E7013BFBE733001C
:109920000322D6E7E7030000DB05000010B50400C2
:10993000034B08330360FFF7D3FB200010BDC04684
:1099400038600200F0B5070000250E0085B00293D4
:109950000AAB1B7808370393104B040008330360ED
:109960000192858085712900182238000CF041FA97
:10997000039A310038000CF036F86B466A469B8833
:10998000127AA380A31DE671DA77631D2562200099
:10999000DD77FFF787FB200005B0F0BD38600200DF
:1099A0000048704716FCFFFF10B53320FEF7C6FED7
:1099B000004810BD16FCFFFF002310B50400838093
:1099C00083710D482164083020608020C000A061B0
:1099D000E0612062E3602000236163616362A3624F
:1099E000E36223636363A363E3636364110009F0C9
:1099F000BEFB200010BDC04650600200F0B5534FC2
:109A000097B03B6806000593002B00D08BE00B332A
:109A10001C22212106A80AAC01F02CF80EAD0B2364
:109A20001D222221200001F025F80B231B222321D7
:109A3000280001F01FF808200CF08CF90122059B8A
:109A4000110004900AF042FE1D2130000AF052FB82
:109A500000281DD0A38812ADAB80A3796020AB7124
:109A60003B4B1293A3681493237B2B73637B6B7321
:109A7000A37BAB730CF06EF90523019318330093AD
:109A80002A00049B3100040001F0B0FE3C604AE073
:109A90003C2130000AF05CFB00281CD0A38812ADEA
:109AA000AB80A3796020AB71294B1293A368149308
:109AB000237B2B73637B6B73A37BAB730CF04AF933
:109AC00005230193373300932A00049B31000400DF
:109AD00001F0F8FFDAE73C2130000AF0DDFA002857
:109AE0002AD0AB8812ACA380AB79A420A371184B09
:109AF0001293AB6814932B7B23736B7B6373AB7BE9
:109B0000A3730CF027F9052305000293013B019391
:109B1000383300932200049B310001F0B1FC0D4B5F
:109B20001D6044353D600B4B084A1B681068002BD4
:109B300000D0436417B0F0BD48200CF00BF90522AB
:109B400004990400FFF738FFA0E7C046E424002092
:109B5000F45F0200E024002082B0F0B50400EDB014
:109B60006420739372920BF0FCFF052210A8110081
:109B700009F0F1F8974911A8FFF7C2FB002221ABC9
:109B80006CA91A605A609A600C339942F9D1192273
:109B9000002113A80CF02DF9A06809F0A7FE0026FB
:109BA0000B90FF21A06800F049FD8B4FA06800F0EA
:109BB0005FFB07960996884B9F4203D0874B9F42D5
:109BC00000DBFDE0A06809F093FEA56884491AA8AF
:109BD000FFF794FA78221AA9280000F077FC1AA857
:109BE00008F0CEFF00267C4F0322099B60680133FA
:109BF0001A40099209F054FA0500606809F057FA12
:109C00000022784B05929D4210DB013205922A001A
:109C1000C8320BDBAA22042192000591954205DC93
:109C200002220592C82D01DD013205920022069222
:109C3000984210DB012306930300C8330BDBAA23F1
:109C400004329B000692984205DC02230693C82842
:109C500001DD0133069310A809F074F8002513AB59
:109C6000EB5C012B08D160496B00CA185278C95CC3
:109C700010A8FF23FFF7C0FA0135192DEFD16B466D
:109C800018229A5E6B4610A81421595E099BFFF7B3
:109C9000B3FA002F01DB0F2E07D90023A068009331
:109CA00074301A0010A909F063F801230893089B87
:109CB00005995A004C4B9B189A1E12788A4226D15D
:109CC000013B1B78069A934221D1089A6CAB9B18F2
:109CD000663BFF3B0A931B78012B18D00C23079A95
:109CE000216853431D0000220CA809F06AFA21AA3A
:109CF0002B0094460CAA634423CA23C301220A9B67
:109D000001361A70079BF6B20133DBB20793089B4A
:109D1000013308931A2BCAD164200BF022FF079B52
:109D2000643F3FB2182B00D845E71A0021A91AA8B2
:109D300009F055FC6A461DAB23CB23C21B68136098
:109D40001A991B9A1C9B206809F023FAE568002DDC
:109D50000CD0264912A8FFF7D1F91C231AAA12A980
:109D600028000AF064F912A808F00AFFA06809F0B8
:109D7000BFFD11A912A8A56808F0CDFF00221C4B59
:109D8000009212A901932800130000F00FFB12A803
:109D900008F0B4FFFA2080000BF0E3FEA06809F0A1
:109DA000A7FD0B99A06800F049FC11A808F0A6FFD8
:109DB00010A808F0A3FF6DB0F0BC08BC02B01847B3
:109DC000002F02D00F2E00D00EE7A06800F050FA4E
:109DD0000AE7C0468A6C02008C3C0000D18AFFFF73
:109DE000CF6C020058FDFFFFEF6C0200E46C020034
:109DF000DC050000F0B587B001930EAB1B880600B0
:109E000003930D9B0D000093019B02920C9F002B6E
:109E10003DD0002F02D1009BDB0738D528200BF066
:109E200099FF0400103008F03CFF6B461B89182096
:109E3000258063800BF08EFF0500009B08220593B0
:109E4000019B002103600C3004970BF0D2FF082225
:109E500004A9281D0BF0B1FF0E4B02226B610023F9
:109E60000399E3602362636233680A43A560A280BA
:109E70005B68210030009847002806D0200008F0D9
:109E800035FE20000BF062FF034807B0F0BD034829
:109E9000FBE7C0460332020016FCFFFF17FCFFFF82
:109EA00070B58CB08360109B01604260C360040099
:109EB000184918000AF082F8051E14D001001C226F
:109EC000103105A80BF079FF6A4608AB43CB43C2BB
:109ED0001B68136020680599069A079B09F059F9D9
:109EE00028000BF033FF0C4B186800280ED00B4AEB
:109EF00005AB059200220692C03202926A4622CB3E
:109F000022C2230003220521FFF774FF20000CB0BA
:109F100070BDC046E46C0200D4240020599B0100AF
:109F2000F0B5040085B0637A9C46002B04D1200074
:109F300009F073FB05B0F0BDA37A266F01931023DF
:109F4000019AF35600259B1801229A402900F368D4
:109F500003920293029BAB4231DDB368019A6B43DB
:109F60009B1872695B00E77AD3181A785878E379FE
:109F7000012F14D15F1E3F1A10003A005B004343CB
:109F8000606F8218D3189B79634500DD6346627B5E
:109F90001A4202D00123AB4019430135DAE7022F00
:109FA00005D15F1EBA1A277A013F381AE6E7032F58
:109FB000E4D1277A013FBF1A02003800DEE71123FF
:109FC000C943F356606C994023691940039B1943B8
:109FD0000BF094FEA27B072AACD8637B0C495B0094
:109FE0006373531CDBB290004158A373022A03D859
:109FF00008000BF0ABFD96E7064B2000236300231F
:10A000006363054BE462236414300BF02DFC91E78D
:10A010007C600200219F01000536020010B504009B
:10A02000044B03600BF018FC200005F093FC2000AB
:10A0300010BDC046A867020010B504000E4B0833DF
:10A040000360FFF74DF82000743008F057FE200041
:10A05000603008F053FE2000583008F091FD2000D9
:10A06000503008F08DFD2000044B14306361FFF781
:10A07000D5FF200010BDC0469C600200DC670200D6
:10A08000F8B500250400324B8580083303608571E4
:10A09000143016000F0005F047FC20002D4BE56240
:10A0A000636125645030FFF763F820005830FFF7F4
:10A0B0005FF820006030FFF789F820000423F25E8B
:10A0C00033682667590009B2743008F044FE3368DB
:10A0D000226FE37173680126237210236581A780C4
:10A0E0002561D35691685918994204DD3000984093
:10A0F00001330543F8E711230120D356D1685918DD
:10A10000994206DD02009A402669013332432261FA
:10A11000F6E714200BF01EFE226900212A430123DA
:10A12000060005F0ADFFFF23220063720133A38117
:10A13000002348326664A37320001370A366FEF701
:10A14000B1FF0123A27920001343A371F8BDC046DB
:10A150009C600200DC670200F0B5437A85B0040021
:10A16000002B04D1200009F058FA05B0F0BD0122FF
:10A17000837A11009C461023066F0025F356039244
:10A180006344994002912900F3680193019BAB421B
:10A190002CDDB36872696B4363445B00E77AD318C4
:10A1A0001A785878E379012F10D15F1E3F1A1000FA
:10A1B0003A005B004343606F8218D3189B79002BF1
:10A1C00002D0039BAB4019430135DFE7022F05D1D5
:10A1D0005F1EBA1A277A013F381AEAE7032FE8D13F
:10A1E000277A013FBF1A02003800E2E71123C94372
:10A1F000F356606C994023691940029B19430BF098
:10A200007DFD667AB31EDBB2FC2B14D8FEF7F8FE98
:10A210000B4B0500236300230A4863630A4BFF21AD
:10A22000E4622364704306F0E7F92900414320000B
:10A2300014300BF019FB637A012B00D995E791E7F5
:10A240001B360200B6030000053602001FB50123CD
:10A2500081881A00684608F02EFD012303491A0080
:10A26000684608F028FD05B000BDC046FE030000AA
:10A270001FB5030048331A780400002A0DD00022CD
:10A280001A70012381881A00684608F014FD012322
:10A2900004491A00684608F00EFD2000743008F0EA
:10A2A00051FD1FBDFF03000010B548300378002B9F
:10A2B00006D00378012B03D00121024808F06AFB85
:10A2C00010BDC046FF03000010B5012104000620A8
:10A2D00008F060FB064B984208D148342378002BE5
:10A2E00004D02378012B01D020BFF7E710BDC04672
:10A2F00016FCFFFF70B50600141E19DB050048357B
:10A300002B78002B02D02B78012B13D100233000A7
:10A310001A007430FFF744F8002C07D033004A339A
:10A320001C80002407234C3634802B70200070BD25
:10A33000014CFBE7014CF9E717FCFFFF12FCFFFFA4
:10A34000F8B517000A68050052880B00012A09D1E8
:10A350000021180008F098FC002201002800FFF7F7
:10A36000C9FFF8BD002F19DD060048363278002AF3
:10A3700002D03278012A13D12A00002428005C324E
:10A3800019001480583008F05AFC2B004A331F8003
:10A3900003234C352C8020003370E2E70148E0E7CE
:10A3A0000148DEE717FCFFFF12FCFFFF73B5079CB7
:10A3B0000500002C1CDB060048363078002802D04F
:10A3C0003078012816D106981BB2C0B20090280040
:10A3D00012B2743008F0CCFC002C07D02B004A33AA
:10A3E0001C80002407234C352C803370200076BD60
:10A3F000014CFBE7014CF9E717FCFFFF12FCFFFFE4
:10A40000F7B505000E00171E26DDFFF74DFF2B00E8
:10A4100048331C78E4B2002C20D133685B88012BD0
:10A4200009D12100300008F02FFC22000100280093
:10A43000FFF760FFFEBD310001A808F0F8FB3A000D
:10A4400001A92800FFF77CFF01A808F099FB28006C
:10A45000FFF73AFF2000EDE70148EBE70148E9E7A5
:10A4600017FCFFFF11FCFFFFF0B587B00D9C060045
:10A470000F0002920393002C20DBFFF715FF33003F
:10A4800048331D78EDB2002D1AD1390005A808F027
:10A4900042FC0C9B01940093029A039B05A9300097
:10A4A000FFF784FF05A808F029FC002C03D030003A
:10A4B000FFF70AFF2C00200007B0F0BD014CFAE7BF
:10A4C000014CF8E717FCFFFF11FCFFFFF8B5040093
:10A4D000171E1DDD060048363378002B02D0337876
:10A4E000012B17D12200E3795632013B1370230070
:10A4F0000025200054331D80503008F0A0FB2300BD
:10A500004A331F80022328004C3425803370F8BD65
:10A510000148FCE70148FAE717FCFFFF12FCFFFFC8
:10A52000F7B505000F00161E18DDFFF7BDFE2B0066
:10A5300048331C78E4B2002C12D1390001A808F08D
:10A5400076FB320001A92800FFF7C0FF01A808F040
:10A5500017FB2800FFF7B8FE2000FEBD0148FCE70E
:10A560000148FAE717FCFFFF11FCFFFFF8B50400F4
:10A57000171E2DDD060048363278002A02D03278C8
:10A58000012A27D15D42069BFF331FD16B1D22009C
:10A590001BB2643213802300200066331D706030CC
:10A5A00008F0C1FB230000226C331A70954200D0E2
:10A5B0003D0023004A331D80079B00205A1E934113
:10A5C000013F4C34053327803370F8BD069BDEE72E
:10A5D0000148FAE70148F8E717FCFFFF12FCFFFF0C
:10A5E000F0B587B005000F00161E03931EDDFFF7C0
:10A5F0005BFE2B0048331C78E4B2002C18D13900E4
:10A6000005A808F088FB0D9B320001930C9B05A95F
:10A6100000932800039BFFF7A9FF05A808F06EFB35
:10A620002800FFF751FE200007B0F0BD0148FBE70E
:10A630000148F9E717FCFFFF11FCFFFFFF2902D8D3
:10A640004172002070470148FCE7C04617FCFFFF3D
:10A6500013B5040004A80078009020000BF02AF93C
:10A66000002801D1207516BD0048FCE70EFCFFFF55
:10A6700013B5040004A80078009020000BF002F944
:10A68000002801D1207516BD0048FCE70EFCFFFF35
:10A690007FB50D0011000F226A4404001E1E1170C8
:10A6A00016D0089B002B13DD012329000093FFF730
:10A6B000DFFF002802D0074804B070BD0090089B5F
:10A6C000320029002000FFF7C3FF0028F4D0F2E792
:10A6D0000148F1E70EFCFFFF17FCFFFFF7B507008D
:10A6E0000D1E3FD00023022604690193002C35D0B3
:10A6F000AA88A3885340334204D1324204D1AB88A4
:10A70000334226D0646AF1E7A968A06809F0C3FF64
:10A710000028F4D02B88002B02D022889A42F1D155
:10A720006B88002B02D062889A42EBD1EB68E2681A
:10A73000934201D0002BE5D17B68002B01D0200093
:10A740009847A288084B1343A380019B01330193D0
:10A75000D8E7A368AA689342D4D1DBE7019B200025
:10A76000002B00DC0148FEBD0080FFFF17FCFFFF4F
:10A77000F0B5060085B00D1E5DD001270469002CE0
:10A7800026D00221AA8800230A4202D0A3885B08AF
:10A790003B40226829688A4214D1A068A968002B2E
:10A7A0000ED009F078FF00280CD0EB68E2689342E5
:10A7B00008D1A3881AB2002A06DB204805B0F0BDF4
:10A7C0008842F2D0646ADAE75B045B0CA380F4E7AA
:10A7D00030692A88002807D1356101231849684665
:10A7E00008F069FA0020E9E7010003001C889442A0
:10A7F00006D25C6A1900002C0DD02300F6E7230076
:10A800001C88944207D15F886C88A74203D85C6A91
:10A810001900002CF3D1884209D10B889A4204D345
:10A8200005D148886B88984201D96962D4E74B6AA0
:10A830006B624D62D1E70348C0E7C04616FCFFFFDC
:10A84000FD03000017FCFFFF064B10B51A000400C3
:10A8500008322C33026083600830FEF791F9200043
:10A8600010BDC046B460020008B4024B9C460838D4
:10A8700008BC604749A8010008B4024B9C46083850
:10A8800008BC6047633A02000C4A002311002C32D6
:10A89000083110B543608381837382600361436133
:10A8A0008361C383016004000830FEF75BF9044B49
:10A8B0001A68002A00D11C60200010BDB46002009C
:10A8C000D4240020F7B50E00012504690192002C64
:10A8D00036D0238832889A4201D0002B23D1638856
:10A8E00072889A4201D0002B1DD1FEF7AFF80123E8
:10A8F000002806D0C022A3881340C03B5A425341CF
:10A90000DBB2019A934219D1A7883BB2002B15DB29
:10A9100010223100A0180BF050FA40231F4204D03F
:10A92000200009F0A7F8646AD1E7FEF78FF8002845
:10A93000F6D021000348FEF73BFAF4E70025F2E7E2
:10A940002800FEBD753A020008B4024B9C46083848
:10A9500008BC6047FD3B0200F0B587B001930EAB29
:10A960001B88060003930D9B0D000093019B029230
:10A970000C9F002B3DD0002F02D1009BDB0738D568
:10A9800028200BF0E7F90400103008F08AF96B4634
:10A990001B891820258063800BF0DCF90500009BE3
:10A9A00008220593019B002103600C3004970BF0F3
:10A9B00020FA082204A9281D0BF0FFF90E4B0222F1
:10A9C0006B6100230399E3602362636233680A4387
:10A9D000A560A2805B68210030009847002806D05F
:10A9E000200008F083F820000BF0B0F9034807B00E
:10A9F000F0BD0348FBE7C046373C020016FCFFFFF2
:10AA000017FCFFFFF0B50400160000258380164AEE
:10AA1000164B85710260218146810573186889B0E3
:10AA20008C46A8421DD0124A05950492C02202927B
:10AA30006A4604AB82CB82C223002A006146FFF73C
:10AA40008BFFC022094B0A49186802926A46069198
:10AA500006AB079582CB82C223002A003100FFF7A4
:10AA60007BFF200009B0F0BDF8600200D424002074
:10AA7000613D020030B5002403730123034D84714E
:10AA80000560818082734373846030BDF45F02008F
:10AA900070B583790400DB0702D580680BF056F9A6
:10AAA000A3799B0702D5A0680BF050F9A3795B0747
:10AAB00007D5A0230021144ADB00D150A0680BF079
:10AAC00045F9A3791B0708D5A568002D05D02800F6
:10AAD00009F052FE28000BF039F9A379DB0605D501
:10AAE000A068002802D00368DB6898476023A27939
:10AAF0001A4205D0A068002802D003685B68984716
:10AB00000023A360A37170BD00700040F7B501265B
:10AB1000037B040033422AD0612385791D4017D17D
:10AB2000FFF7B6FF18200BF015F90E230700E356C8
:10AB300018220093637B290001930BF05AF9019AC4
:10AB4000009938000AF04FFFA379A7603343A3713F
:10AB50006023A279A0681A4202D00AF0F9FDFEBD76
:10AB6000436940681B681840431E9841F7E7014855
:10AB7000F5E7C04616FCFFFF10B501248379417349
:10AB80001C4004D080680AF0F8FF002010BD60224D
:10AB9000134203D080680AF0E2FDF6E70048F5E7CB
:10ABA00016FCFFFF70B5040000250C4B0E000833A7
:10ABB0008580857103602100183009F082F920003A
:10ABC0002100203009F0A0F9054BA680E580257210
:10ABD000E5602561656120001C6070BD08610200B0
:10ABE000E82400208379DB0702D5C160002070478C
:10ABF0000048FCE716FCFFFF8379DB0701D5C0683E
:10AC000070470148FCE7C04616FCFFFF70B5456978
:10AC10000400002D22D0037A032B21D8FFF7ECFF8C
:10AC2000A8622C200BF096F82C22002105000BF0D6
:10AC3000E0F8002263695A622369934208D163698C
:10AC400023610020237A65610133237270BD1300F4
:10AC50005A6A002AFBD162695A62F2E70148F5E7B5
:10AC60000148F3E717FCFFFF13FCFFFF144B70B51F
:10AC70005A68144C002A03D000225A600132A260A4
:10AC80001A69002A17D0002119618023DB000E4DBC
:10AC9000E3582868012B0FD1A923DB00E158494272
:10ACA000FFF7A0FF2868FFF7B1FF2B685A69074B31
:10ACB000E2500123A36070BDFFF794FFF9E7C0469F
:10ACC000FC10004000100040E824002004050000B3
:10ACD00003000069002809D00221054AD167426AB1
:10ACE0001A611A7A013A1A72024B19607047C0460B
:10ACF00004E100E000E100E010B5002903DB024BB5
:10AD000019600AF027FE10BDEC24002070B5040085
:10AD10001E0004AB1D7804F04FFE20000E4B4030A7
:10AD20002360FEF725FA230001364C33013522005B
:10AD30001E701D730023E1214E32A36463651380EE
:10AD400053809381D381013B200063644902FFF764
:10AD5000D3FF200070BDC046A45F0200F7B5802776
:10AD60007F053D697C690822113C6C430600210087
:10AD700068460BF022F8104B009A9A4219D00093C3
:10AD800000230193796930001339694309F0D1F840
:10AD9000019A0099300009F0E4F82100300009F030
:10ADA000C8F87969AB08133969432200300009F00B
:10ADB000CAF80198FEBDC046FECA0000F0B50D00FD
:10ADC000A9B00D9200213022060010A80B930BF0C1
:10ADD00010F828000BF04DF8431C0C93102B00D9F1
:10ADE000B5E00B9B202B00D9B1E02900300009F021
:10ADF000E5F8071E50D129000C9A10A80AF0DDFFD3
:10AE00000D990B9A14A80AF0D8FF80235B051A69E4
:10AE10005F690C92113F7A4330005D690B92FFF736
:10AE20009DFF3022002104001CA80AF0E2FF290047
:10AE300000270C9B13395943300009F07AF80D971D
:10AE400030257D430B9B0833ED18A74242DA2900D9
:10AE500030221CA80AF0B1FF10A91CA80AF0FFFFBD
:10AE6000002827D13C49300022000E910F9409F0B0
:10AE700078F86A46099513AB23CB23C223CB23C2B0
:10AE800023CB23C23000129B1099119A09F077F856
:10AE900001230D930137D3E710300B9A0D990AF077
:10AEA0007DFF040038000AF051FF002CA3D12000E0
:10AEB00029B0F0BD6A4609951FAB23CB23C223CB33
:10AEC00023C223CB23C230001C991D9A1E9B09F07C
:10AED00056F8DFE7E5433023ED1725405D430B9B34
:10AEE00008355D190D9B002B1DD10C9B3021981E40
:10AEF00005F0F8FAA0422CD01749013430002200A6
:10AF00000E910F9409F02DF86A46099513AB23CBE7
:10AF100023C223CB23C223CB23C230001099119A22
:10AF2000129B09F02CF80B99300009F002F88023ED
:10AF30005B0559690C230C9A133963434A43023366
:10AF4000110030000B9A08F0FEFF0024AFE7034C1D
:10AF5000ADE7034CABE7C046FECA000017FCFFFF9D
:10AF600013FCFFFF8023F0B55B051A6995B00392CF
:10AF70005A6905910399113A51435D69039B133D49
:10AF8000040002915D43FFF7E9FE061E3BD0002757
:10AF900030220021083508A801950AF02AFF0199FE
:10AFA000200008F0C6FF049730237B43029D08353C
:10AFB000ED18B7421FDA2900302208A80AF0FDFE7A
:10AFC000059908A80AF04BFF00280AD11949721EFA
:10AFD00020000691079208F0C4FF01230493013773
:10AFE000E2E70C23019A2900200008F0ACFF019B46
:10AFF00030330193F3E7049B002B06D10D49320057
:10B00000200008F0AEFF0C4812E00299200008F082
:10B0100090FF80235B0559690C23039A13394A4337
:10B020007343110020000233029A08F08CFF0020C5
:10B0300015B0F0BDFECA00000CFCFFFF70B50400A7
:10B04000A280FA22002308000C49920008312160F6
:10B05000A3716061E260A3606382094908F0AEFFFA
:10B06000051E09D0010020001031022212300AF022
:10B07000A4FE28000AF06AFE200070BD20610200D4
:10B08000216D020030B50225837987B004002B4280
:10B0900004D1FDF767FDA3791D43A571200008F0D9
:10B0A000D7FF00281CD06B46DD1C280008F0C7FF26
:10B0B0002B78002B17D001A808F0BFFF0321019ABD
:10B0C000D3170B409B189B102382FDF7D3FFE36837
:10B0D000A18818180123A0601A0002A807F0EBFD50
:10B0E000002007B030BD0122064B1A60064A5168A5
:10B0F0000029FCD000215160044A1268019201220B
:10B100005A60DBE700C00040FCC0004008C50040BA
:10B11000022802D10122014B1A70704793270020A8
:10B1200070B5064C05002378002B04D1044802F0CA
:10B1300027FA01232370280070BDC0469427002001
:10B1400011B1010070B50C0007F0B2FB002810D05F
:10B150000023144DA40A2B70200008F08DFF002856
:10B1600003D00A200AF0FDFCF6E72B78002BFCD078
:10B1700070BD02210C4B0D4A99508021C900080076
:10B180005D58002DFCD0A121C9005C501958002940
:10B19000FCD0002199508021C9005A58002AFCD0C7
:10B1A000E6E7C0469327002000E0014004050000C8
:10B1B000F8B50C0015001E0007F07AFB002811D02E
:10B1C0000023174F3B7032002900200008F052FF87
:10B1D000002803D00A200AF0C4FCF4E73B78002BD7
:10B1E000FCD0F8BD01210F480F4B84461950802137
:10B1F000C9005A58002AFCD080270022FF0096423E
:10B2000007DD910068586050D9590029FCD00132FF
:10B21000F5E7002261465A50DA59002AFCD0E0E7EF
:10B22000932700200405000000E0014008B4024B11
:10B230009C46443808BC60477D400200FA21F8B5BE
:10B240000389C90004005943324809F03AFAFA2147
:10B25000890005F047F9304F2081A17A380009F0C4
:10B2600030FA23002600250022894C33A072A03634
:10B270001A808C35317800232A22286808F045FB93
:10B28000002801D02548F8BD31781F235B222868AB
:10B2900008F03BFB0028F5D1317820235C22286898
:10B2A00008F033FB0028EDD1317801232C222868E7
:10B2B00008F02BFB0028E5D1317801232D222868E6
:10B2C00008F023FB0028DDD1317801232E222868E5
:10B2D00008F01BFB0028D5D1A17A380009F0ECF961
:10B2E0003178C3B20E22286808F00FFB0028C9D1BC
:10B2F000FA21238989005943064809F0DDF9012321
:10B300000343DBB231782A22286808F0FEFA0028CD
:10B31000B9D0B7E740610200386102000EFCFFFFC0
:10B3200008B4024B9C46443808BC60473DB201005B
:10B33000074B10B51A00040008323C330260436426
:10B34000443007F0E2FE200007F004FE200010BDAC
:10B35000A061020008B4024B9C46443808BC604718
:10B3600031B3010008B4024B9C46443808BC604726
:10B3700087400200F0B5042583798BB004002B428E
:10B3800004D1FDF7EFFBA3791D43A5712000903098
:10B39000FFF7BCFB0026B0420FD12300A033197881
:10B3A00020000C2307AD00938C302B000122006895
:10B3B000FFF76EF9061E03D02C4E30000BB0F0BD27
:10B3C0000A2304AA9B182A785A706A781A700022F5
:10B3D000985EAA785A70EA781A700022995E0391F2
:10B3E0002A795A706A791A7000229F5EAA795A7077
:10B3F000EA791A7000215A5E04922A7A5A706A7A9F
:10B400001A7000215A5E0592AA7A5A70EA7A1F25AC
:10B410001A7000229B5EA27A03999C4651434942CE
:10B420005043CB172B407A435B185B11A361C317C2
:10B430002B401818D3171D406423AD18059A5B42A2
:10B440005343A36764236146049A40115A434B4314
:10B45000E2676D11221DE06125622000D36707F0CD
:10B46000F2FD2000443007F057FEA6E70EFCFFFF78
:10B4700008B4024B9C46443808BC604775B30100D1
:10B48000F7B51E00040008AB1B881500019309AB3B
:10B4900000911A8831000AAB1F88FEF737F82000A8
:10B4A0003A0031004430FEF787FA134B20001A00AF
:10B4B0003C336364230008322260009A8C331A60A4
:10B4C000AB8890308380AB796A4683710B4B92884E
:10B4D0000360AB68032183602B7B03736B7B437337
:10B4E000AB7B83732300A0331A80FFF745FB20005A
:10B4F000FFF7A4FE2000FEBDA0610200F45F020081
:10B50000F8B5FA260189B60004007143264809F00F
:10B51000D8F8310004F0E6FF244F2081A17A3800EA
:10B5200009F0CFF82500A0725835297800232A2287
:10B53000606C08F0EAF9002801D01D48F8BD2978B0
:10B5400010232B22606C08F0E0F90028F5D129784F
:10B5500001232D22606C08F0D8F90028EDD129785C
:10B5600001232E22606C08F0D0F90028E5D1A17AE1
:10B57000380009F0A1F82978C3B20E22606C08F0F7
:10B58000C4F90028D9D121890748714309F094F8FA
:10B5900001230343DBB229782A22606C08F0B5F955
:10B5A0000028CBD0C9E7C046086202000062020052
:10B5B0000EFCFFFF10B50400034B0833036007F0D7
:10B5C000C9FC200010BDC046686202007FB504259A
:10B5D000837904002B4204D1FDF7C4FAA3791D43FB
:10B5E000A57120004830FFF791FA0025A8420DD13F
:10B5F000230058331978062302AE0093012233004A
:10B60000606CFFF745F8051E03D00D4D280004B00F
:10B6100070BD022300210420F356A27ADB0071568C
:10B6200030565343C000C900514342435B42A361BB
:10B630002368E16122629B6A20009847E6E7C046E2
:10B640000EFCFFFFF8B50400150006AA168807AA2D
:10B650000F0012881900FDF759FF0F4B676408337C
:10B6600023602300AA8848339A80AA7920009A711F
:10B670000A4AA264AA6822652A7B1A736A7B5A73F3
:10B68000AA7B9A730023A371230058331E80FFF70F
:10B6900037FF2000F8BDC04668620200F45F020078
:10B6A00010B50400034B0833036007F02EFD2000A3
:10B6B00010BDC046FC620200F0B507005C3787B0E1
:10B6C0000400397800231022806C08F01EF903264C
:10B6D000002802D01F4807B0F0BD0F2502ABED18BF
:10B6E0000123397808220093A06C2B00FEF7D0FFCD
:10B6F000184B9842EED02B78334203D06420FDF7EC
:10B70000CBFAEAE7FA262189134DB60071432800E7
:10B7100008F0D7FF310004F0E5FE20813978A0233E
:10B720001122A06C08F0F1F80028D3D1A36C218974
:10B730000393714328003F7808F0BEFF01231843AC
:10B74000C3B210223900039808F0DFF80028C2D0F5
:10B75000C0E7C0460EFCFFFF9C62020070B50825E2
:10B76000837986B004002B4204D1FDF7FBF9A3795D
:10B770001D43A57120004C30FFF7C8F9061E0DD0FF
:10B7800023005C331978062304AD009301222B00BB
:10B79000A06CFEF77DFF061E03D0134E300006B0EE
:10B7A00070BD0E232A786B445A706A7820001A7094
:10B7B0000022995E64224A43A263AA785A70EA780A
:10B7C0001A700022995E64225242514361632979C2
:10B7D00059706979197000215B5E5A432368E263EE
:10B7E0001B6A9847DAE7C0460EFCFFFFF8B5040075
:10B7F000150006AA168807AA0F0012881900FEF77E
:10B80000DBF80D4BA764083323602300AA884C3370
:10B810009A80AA7920009A71084AE264AA6862654F
:10B820002A7B1A736A7B5A73AA7B1E829A73FFF76C
:10B8300043FF2000F8BDC046FC620200F45F020036
:10B84000F7B5FA250189204FAD000400694338009F
:10B8500008F037FF290004F045FEA17A20811B483B
:10B8600008F02FFF2600636CA072009321895836E0
:10B87000337869433800019308F01EFF0723034320
:10B88000DBB220220199009808F03FF8002801D08F
:10B890000F48FEBD317810232222606C08F035F885
:10B8A0000028F5D1A17A0948656C377808F004FFC3
:10B8B00080235B420343DBB223223900280008F0D7
:10B8C00024F80028E5D0E3E7306302002863020093
:10B8D0000EFCFFFF10B50400034B0833036007F0B4
:10B8E00039FB200010BDC046A0630200F0B504255E
:10B8F000837985B004002B4204D1FDF733F9A37995
:10B900001D43A57120004830FFF700F9061E0DD039
:10B91000230058331978062302AD0093A8222B0088
:10B92000606CFEF7B5FE061E03D0144E300005B065
:10B93000F0BD1F200023EA5ED31703409B180222AC
:10B94000A95E5B11CA170240521804216F5E5211A2
:10B95000F9170140C91949112B806A80A980A07A82
:10B960004343424341435B42E36123685242A26145
:10B9700021629B6A20009847D8E7C0460EFCFFFF73
:10B98000F8B50400150006AA168807AA0F00128849
:10B990001900FDF7BBFD0F4B6764083323602300DC
:10B9A000AA8848339A80AA7920009A710A4AA26428
:10B9B000AA6822652A7B1A736A7B5A73AA7B9A73D8
:10B9C0000023A371230058331E80FFF739FF2000A6
:10B9D000F8BDC046A0630200F45F0200F7B5FA2587
:10B9E00004000189134EAD006943300008F069FE80
:10B9F000290004F077FD2700A36C208100935C37B9
:10BA00003B7881B269433000019308F055FE602213
:10BA1000C3B20199009807F078FF002801D00648CA
:10BA2000FEBD397801236222A06C07F06EFF00286A
:10BA3000F6D0F4E7D46302000EFCFFFF10B504005B
:10BA4000034B0833036007F060FB200010BDC046C5
:10BA5000FC6302007FB50825837904002B4204D1E2
:10BA6000FDF780F8A3791D43A57120004C30FFF746
:10BA70004DF8051E0DD023005C331978062302AE65
:10BA80000093E8223300A06CFEF702FE051E03D0EF
:10BA90000B4D280004B070BD0223F25E96235B427A
:10BAA0005A4362630021725E20005343A363042360
:10BAB000F25E96235343E36323681B6A9847E8E7E3
:10BAC0000EFCFFFFF8B50400150006AA168807AAA9
:10BAD0000F0012881900FDF76FFF0D4BA7640833A4
:10BAE00023602300AA884C339A80AA7920009A7197
:10BAF000084AE264AA6862652A7B1A736A7B5A73F1
:10BB0000AA7B1E829A73FFF769FF2000F8BDC0462A
:10BB1000FC630200F45F0200F0B585B001930AAB4C
:10BB20001E880BAB1B78451C02930EAB1B780400E0
:10BB300003930B78170003704B8A10224382013164
:10BB400028000AF03AF96B469B88268363836B468C
:10BB50001B7B002623776B4601221B7A6761E683F5
:10BB6000EB77A31CDA770C9B0C2563622300200083
:10BB70000D9A28331A705E709E702A0031002C30A6
:10BB80000AF037F92000074BE663A3632A0031006F
:10BB900040300AF02EF92000034B2665E36405B01F
:10BBA000F0BDC0467141020063410200F0B50700DC
:10BBB000C5B001604260684900222FA808F05BFB15
:10BBC0003B000833069312230024012601930C3B0B
:10BBD00012AD04960093069A23002FA903940294B1
:10BBE0001AA8FFF799FF22005C49280008F043FBE0
:10BBF0003B000E3307930A230193083B2900079A61
:10BC0000049600930394230002942FA8FFF784FF67
:10BC10007868BC600368BC815B699847622202ABAC
:10BC2000D218D677B62202ABD218D6771AAA0992C2
:10BC30002FAAF8810A924A4922000DA808F01BFB9E
:10BC40002C21412002AA5218137802AA2B70D38FFC
:10BC500001316B8202AB1022C918C0180AF0ADF88E
:10BC6000022309AE38682B75AE61AC8308F0A5FDE0
:10BC7000036829001B6898477E2202AB9B181B882B
:10BC800054323B8202AB9B181B8838687B8208F0D9
:10BC900094FD0368398A0094DD68069A0623A84754
:10BCA000386808F08AFD0368798A0094079ADD688D
:10BCB0000223A847386808F080FD060014200AF027
:10BCC00049F80500274B0461082280C00BA90B939B
:10BCD0000C940AF072F8244BEB60B369A34239D19B
:10BCE000224BB5611D68002D31D028200AF032F8B2
:10BCF0000400103006F0D5FF1D4B182023600AF019
:10BD000029F8002206001B4B0E9207600832002122
:10BD10000C300D930AF06DF808220DA9301D0AF0C1
:10BD20004CF8154B00227361C223A3802B68E2609C
:10BD3000A660226262625B682100280098470028A2
:10BD400005D0200006F0D2FE200009F0FFFF3800E9
:10BD500045B0F0BD2B61C3E7296D0200396D0200CB
:10BD6000496D0200E94102007F410200D424002015
:10BD7000040001002D420200A941020010B5040098
:10BD8000054B083303601C3006F0FAFE2000183023
:10BD900006F0F6FE200010BD28640200FF23F0B577
:10BDA0002C4D8DB02B700023040069460088009351
:10BDB00002F0E2FE002802D16B469B782B70264EE3
:10BDC0003368DB68002B07D1002320881A00190094
:10BDD00008F076FA0DB0F0BD2B78032BF4D81F498C
:10BDE00001A8FDF78BF9336801A9DE6804A806F005
:10BDF0001EFF04A9300008F014F90027060004A86B
:10BE000006F0BEFEBE421ED031002022103104A832
:10BE100009F0D3FF300009F099FF297804ABC9007D
:10BE20005918082202A809F0C8FF20880123082217
:10BE300002A908F045FA0137002804D12088084AF1
:10BE40000C2108F03BFA01A806F09AFE002FBBD0A7
:10BE5000C0E7C0467C200020FC240020E46D0200E6
:10BE6000FFFF0000F0B5837991B004005B071BD59C
:10BE7000FDF700F900232269801A9941994203D104
:10BE8000F423FF3398420FD9A068002808D0364B1E
:10BE90001D8808F08EFC036815221B6A290098474C
:10BEA0000422A3799343A371A3799B0759D52F4DFE
:10BEB0002B68DB68002B50D02D4B1B78032B4CD804
:10BEC000294B2C491B8804A80193FDF717F92B680F
:10BED00004A9DE6808A806F0AAFE08A9300008F048
:10BEE000A0F8070008A806F04BFE02AB9E1D082331
:10BEF0003200338006A9073B019808F0E3F9002FD0
:10BF000008D039002022103108A809F056FF380067
:10BF100009F01CFF164B32881B7806A9DE0008AB1F
:10BF20009E19300009F03AFF002813D0082206A914
:10BF3000300009F042FF2B6804A9DD6805A806F06F
:10BF400076FE202308AA05A9280008F070F805A8A5
:10BF500006F016FE04A806F013FE0222A37993430E
:10BF6000A37111B0F0BDC04678270020FC2400204A
:10BF70007C200020E46D0200F7B5089E050015291D
:10BF800022D8012007008F40244C27421CD0E97F93
:10BF9000CC181F2C41DC69183418A14210D800219C
:10BFA000C8B2834204D9545C701884700131F7E739
:10BFB00032789A183270EA7F9B18EB7700202CE0D9
:10BFC0000878C8540139E8E73478013CE4B2A34268
:10BFD00008D10023D9B28C42F0D9D05CF118887016
:10BFE0000133F7E7EF7F0120FF183F1B1F2F14DC01
:10BFF0000227A01C7F423618381B0190E87F2F18BB
:10C00000BE4204D23078019FF0550136F6E7041B9A
:10C01000023CEC77280008F088F9FEBDFC00200007
:10C0200070B504000D1E036809D15B699847FA20BA
:10C0300080006843074904F055FAE08070BD9B68B2
:10C040009847A842F3D9236820009B6898470500C9
:10C05000EDE7C04671020000F0B507001600A1B080
:10C0600002C704006B4918A81D0008F0A5F9331E8B
:10C0700003D0300009F0FDFE83B2012204920022B9
:10C0800003920292023201920093320018A9380002
:10C09000FFF742FD23006049583318A8079308F0C2
:10C0A0008BF92B1E03D0280009F0E3FE83B2012296
:10C0B00004920022039202920232019200932A001B
:10C0C00018A90798FFF728FD23005449AC3318A896
:10C0D000089308F071F9269B002B03D0180009F093
:10C0E000C8FE83B20122049200220392029202321D
:10C0F00001920093269A18A90898FFF70DFD631C7A
:10C10000FF33474918A8099308F056F9279B002BDD
:10C1100003D0180009F0ADFE83B201220492002280
:10C12000601C03920292023201920093279A18A98E
:10C13000FF30FFF7F1FC23005533FF33394918A8CE
:10C14000099308F039F9289B002B03D0180009F057
:10C1500090FE83B2012204920022039202920232E4
:10C1600001920093289A18A90998FFF7D5FC23009B
:10C17000A933FF332C4918A80A9308F01DF9299B0D
:10C18000002B03D0180009F074FE83B20122049240
:10C19000002218AD03920292023201920093299A72
:10C1A00029000A98FFF7B8FC204B1B780B93002B53
:10C1B0002DD1079B12971393089B0DAF1493631C0B
:10C1C000FF331593099B1A4916930A9B380017935E
:10C1D00008F0F2F81D2149203B7810222B707B8A51
:10C1E00012AE6B8206ABC918C01809F0E6FD062333
:10C1F0002B756B469B8D2068AB83AE6108F0DDFA32
:10C20000036829001B6898470122084B1A70200018
:10C2100021B0F0BD292A0000242A0000252A0000B0
:10C22000272A0000262A0000282A0000952700203F
:10C230000A18000070B5002504000B4B85800833F8
:10C2400085710360C1601830FCF792FF20001C303C
:10C25000FCF78EFF0123621CD377044AA560656159
:10C2600020001460A37170BD28640200FC2400202B
:10C27000FA2130B585B00500012302228900684605
:10C2800006F019FD074C2068002809D008F0CDF809
:10C290002988054B22681980022391790B439371F9
:10C2A00005B030BDFC2400207827002010B50C001C
:10C2B00007290DD8806808F07CFA064B19570368E7
:10C2C0005B6C9847431E9841034B4042184010BD99
:10C2D0000248FCE7DC6D020016FCFFFF17FCFFFFC5
:10C2E000F0B5984C0D00A544040096AB1B78964918
:10C2F00008A807930692FCF701FF200029001C30D4
:10C3000006F09DFC914909A8FCF7F8FE90490AA89F
:10C31000FCF7F4FE0CAE09AA08A90BA806F09EFCD7
:10C320002A00300011AD0BA906F098FC0AAA3100D2
:10C33000280006F093FC290008A806F080FC2800DD
:10C3400006F01EFC300006F01BFC0BA806F018FCE3
:10C35000E020C00001F00AF9082009F0FBFC07000A
:10C36000002100F0C5FC0C22A7600021300009F07C
:10C3700040FD2B0007CE07C3764B2900EB6000235E
:10C3800038002B6108F0FEF9A06808F012FA0822C4
:10C390000021059012A809F02CFD142009F0DAFC08
:10C3A0006D4B2A0011930300C2CAC2C36B4B059F99
:10C3B000C3600023A43703613B68002B00D0BAE0C0
:10C3C0003860A06808F0F9F908220021060012A8D8
:10C3D00009F00FFD142009F0BDFC614B119303001F
:10C3E00086CD86C35F4BC36000230361336B002B94
:10C3F00000D0A2E03063A06808F0DBF90822002139
:10C40000059012A809F0F5FC142009F0A3FC564B86
:10C4100011AD11932A000300C2CAC2C3534B059E3B
:10C42000C3600023983603613368002B00D086E098
:10C430003060012004AB1B7F04AA03430BA91377D0
:10C4400007F042FFA06808F0BCF9036848495B6A3E
:10C450009847A06808F0B5F9036846499B69984772
:10C46000A06808F0AEF90021036800911E680A0078
:10C470000B00B047079B002B0AD0200007F0DEFF1F
:10C48000032805DDA06808F09CF90368DB6898477D
:10C4900006212000FFF70AFF374B384A1B68A168C6
:10C4A0000393374B28001B6800250293354B0CAED5
:10C4B0001B680193069B1B6804330093324B126880
:10C4C0001B68FFF7C9FDA06808F073F90368310025
:10C4D0009B6A98472D4BA0680C93B58008F069F9CA
:10C4E00003683100DB6A98470621A06807F070FFF7
:10C4F000089A09219378A068043207F07CFFA068AD
:10C5000008F057F90571A06808F053F93221FFF7D8
:10C5100087FDA06808F04DF907F044FF0AA806F06F
:10C520002FFB09A806F02CFB08A806F029FB912395
:10C530009B009D44F0BD036142E703615AE703613C
:10C5400076E7C046BCFDFFFFC76E0200FD6D02002E
:10C55000D56E0200CD42020071C20100DB42020032
:10C560009DBD0100E942020017430200F7420200AC
:10C5700091C50100C5C50100F8240020F424002065
:10C5800008200020F02400200C20002008001000CB
:10C5900013B506226846FCF7C1FD094B1C68002C48
:10C5A0000AD0694601A806F042FB200001A907F065
:10C5B00065FF01A806F0E4FA684606F0E1FA13BD4B
:10C5C000FC240020002373B501AE0C0031000500EF
:10C5D000019302F0D1FA002802D1B278064B1A700A
:10C5E000064B1868002806D061426141044BC9B26D
:10C5F0001D8007F04BFF73BD7C200020FC24002031
:10C600007827002030B5284CA9B06A220D000DA86B
:10C61000210009F0D2FB0DA903A8FCF7DDFD03A959
:10C6200006A806F078FB01230193013BFF3B009332
:10C630000533FF33642206A92800FDF7D1FF06A8C1
:10C6400006F05CFB210019226A3106A809F0B5FB4F
:10C6500005220024110006AB04A806F083FB04A900
:10C6600005A806F058FB019400942300220005A9B8
:10C670002800FDF7F9FE05A806F040FB2100280080
:10C68000FDF7DCFF05340520FCF706FBFF2CF5D198
:10C69000FA208000FCF700FB04A806F02FFB03A89B
:10C6A00006F02CFB29B030BD596D0200F0B58A4B65
:10C6B0008DB005921A68082304000391D16C07A875
:10C6C0000B43D3648549FCF719FD854908A8FCF79D
:10C6D00015FD220000251C3207A90BA806F0BEFAA2
:10C6E00008AA0BA909A806F0B9FA0BA806F048FA9F
:10C6F000631CDD77A06808F05CF803685B69984705
:10C70000A06808F056F8070006000A371F22290023
:10C71000380009F06EFBFD77300007F03AFE062185
:10C72000A06807F055FE099A09219378A0680432A1
:10C7300007F061FEA06808F03CF80571A06808F0F9
:10C7400038F8C821FFF76CFCA06808F032F8FF2722
:10C750002E000581A06808F02CF807F023FE03984E
:10C76000FDF786FD2000FCF7FDF903992000FFF797
:10C7700049FF0399200007F09CFE04950125636999
:10C780001D402DD057490AA8FCF7BAFD0AA90BA8ED
:10C7900006F0C1FA00220BA913000192009203983F
:10C7A000FDF762FE0BA806F0A9FA049B002B42D10C
:10C7B000043F282F41DD0025FE2F00DC049D059855
:10C7C00006F08FFC002806D0012362699A4313000B
:10C7D00004221343636100260AA806F08FFA049529
:10C7E00004226369134233D0FF210398C826FDF762
:10C7F00025FF0025B600A36902229B5EAB4222DD25
:10C80000200029B2183006F03FFA002301000398F7
:10C810001A007430FCF7C4FD3000FCF73DFA0398B1
:10C8200007F066F8C820FCF737FA02226369134262
:10C8300009D10135DFE70437BBE7039807F058F863
:10C84000002FBCDDBAE7FA208000FCF725FA0026AD
:10C85000022365691D421CD006331D4024D02249A5
:10C860000AA8FCF74DFD0AA90BA806F054FA00220D
:10C870000BA90192009213000398FDF7F5FD0BA898
:10C8800006F03CFA1948FCF707FA0AA806F036FA4F
:10C89000174E6420FCF700FA164B01369E4200DC6E
:10C8A0006CE706F017F869E713490AA8FCF728FDBA
:10C8B0000AA90BA806F02FFA2B002A000BA9019554
:10C8C00000950398FDF7D0FD0BA806F017FA0AA80B
:10C8D00006F014FADDE7C04680240020F06D020067
:10C8E000D56E0200006E0200456E0200983A00000C
:10C8F0008C0A00008B0A0000826E02000300F0B573
:10C900000400C7B0016042602C330022614931A8A5
:10C91000089307F0B0FC2300083300250127079394
:10C9200005220A230497019300922B00079A31A94C
:10C93000039502950898FFF7EFF82A00564931A8A9
:10C9400007F099FC0821220001910C3114AE2B0054
:10C95000103204970091039531A902951CA8FFF7A6
:10C96000DBF82A004D49300007F085FC0A2322003D
:10C970000193083B0E3231000497009303952B007E
:10C98000029531A80992FFF7C7F8052229000798F8
:10C9900009F02FFA78232000E381414B08220AA9ED
:10C9A0002574A4655C300A930B9509F006FA3D4B9B
:10C9B00004AA6366230055331F70083B1F7062236F
:10C9C0009B18DF77B6239B18DF77089B2A000C9310
:10C9D0001CAB0D93344931AB0FA80E9307F04BFC01
:10C9E0002C222D21412004AB9B181B781C3A33705C
:10C9F00004ABDB8F0CAF738204ABC918C01809F00D
:10CA0000DCF9032320683375B761B58307F0D5FEE1
:10CA1000036831001B68984723007E224A331B8835
:10CA20002068A38404AB9B181B885432E38404ABB6
:10CA30009B181B88238507F0C0FE03680095218D95
:10CA4000DE68099A0223B047206807F0B6FE036843
:10CA50000095A18C079ADE680523B047206807F08F
:10CA6000ACFE0700142009F075F906000F4B0561B4
:10CA7000082210C00FA90F93109509F09EF90C4BD6
:10CA8000F360BB69AB4203D12000BE6147B0F0BD8B
:10CA90003361F9E7DD6E0200FD6E0200ED6E02000B
:10CAA0000B460200134502000D6F020067450200AD
:10CAB0003D450200002815D0006041608260C360DF
:10CAC000046145618661C761444604624C46446224
:10CAD000544684625C46C462644604636E464663A0
:10CAE00074468463002A06D0C46B043C043A25686B
:10CAF0001560B442F9D18C6BA6464E6BB546002B3F
:10CB000006D0CC6B043C043B1D682560B442F9D1CF
:10CB10000C6BA446CC6AA3468C6AA2464C6AA1461A
:10CB20000C6AA046CF698E694D690C69CB688A682A
:10CB3000086849687047006041608260C3600461B2
:10CB400045618661C761444604624C46446254466E
:10CB500084625C46C462644604636E4646637446FF
:10CB60008463C46B043C043925680D60B442F9D178
:10CB7000C7698669456904697047006041608260E1
:10CB8000C360046145618661C761444604624C46E6
:10CB90004462544684625C46C462644604636C46E4
:10CBA00044637446846304697047846BA646446B8F
:10CBB000A546046BA446C46AA346846AA246446A96
:10CBC000A146046AA046C769866945690469C368C5
:10CBD000826800684168704710B5041E0CD009F0E7
:10CBE00048F9431EE3189C4208D222781978013B89
:10CBF00021705A700134F6E7014810BD0020FCE7AF
:10CC000017FCFFFFF0B585B002900C1E2AD0002360
:10CC1000C217161A56400193019B30005D1C631920
:10CC20000A215F1E039303F0CDFD49423031397074
:10CC300030000A2103F0E0FC47420600002F0FD12C
:10CC4000029B002B04DA2D23019D039A02351370F9
:10CC5000002320006355FFF7BFFF380005B0F0BD8B
:10CC60000195D9E7004FF8E717FCFFFF0268084B72
:10CC7000406810B5C018C000101803009A4205D8CB
:10CC80001C688C4202D31800083BF7E710BDC04671
:10CC9000FFFFFF1F70B5002817D1114D2E68002E21
:10CCA00011D1083009F056F8066046600D4E0400B8
:10CCB0003368002B02D107F0B7FF306023682C6087
:10CCC0009B00F3586360286870BD0122064907483D
:10CCD0000B681340F8D1026043600A60F4E7C04675
:10CCE0000425002010250020002500200825002014
:10CCF000002370B504000160436099420AD1064DDB
:10CD00002B68002B02D107F08FFF286023689B005F
:10CD1000EB586360200070BD10250020436810B5FB
:10CD20000400002B02D1044808F022FF6068036869
:10CD30001B69984710BDC0461D6F0200436810B5BF
:10CD40000400002B02D1044808F012FF6068036859
:10CD50009B69984710BDC0461D6F0200436810B51F
:10CD60000400002B02D1044808F002FF6068036849
:10CD70005B6A984710BDC0461D6F020000487047AF
:10CD8000FFFF0000F0B597B00593036807AD1B687F
:10CD90000491039311002B00060091C991C3002454
:10CDA000D36821000C220CA8EB602C6109F021F85B
:10CDB00022000B4B10940F9311AB1C701919013406
:10CDC0004A70102CFAD15A820193059B2A000093D5
:10CDD00004990CAB3000039CA04717B0F0BDC046CF
:10CDE000E148020070B5FC30046C0500002C0DD148
:10CDF000242008F0AFFF064B44608361054B84603C
:10CE0000C46004614461C46103602864286C70BD1F
:10CE100014650200FC65020070B5FC30C56B0400AF
:10CE2000002D11D1342008F095FF084B8560436038
:10CE3000074B45610361074B0562C361064BC56241
:10CE40008362064BE0630360E06B70BD44650200E3
:10CE500034650200A4650200B4650200C4650200E6
:10CE60007FB503791548002B22D0154E154C337829
:10CE70002000002B1CD102AD280007F00EFD002879
:10CE800010D16B88592B0DD12B78AA88D91F012975
:10CE900010D800920C4A2021200005F0A1F90123AE
:10CEA000337004E020220949200008F0E9FF200047
:10CEB00004B070BD0092064AEDE7C046406F020024
:10CEC000B627002096270020626F02005A6F0200EA
:10CED0007F6F020010B50400024B08C007F0BDFDD3
:10CEE000200010BD3465020010B50400024B08C0DC
:10CEF00007F0C8FD200010BD44650200064B70B568
:10CF0000040003604068002804D0056908F01EFF93
:10CF10002800F8E7200070BD24650200064B70B5BC
:10CF2000040003604068002804D0056908F00EFF83
:10CF30002800F8E7200070BD54650200064B70B56C
:10CF4000040003604068002804D0056908F0FEFE74
:10CF50002800F8E7200070BD64650200064B70B53C
:10CF6000040003604068002804D0056908F0EEFE64
:10CF70002800F8E7200070BDA4650200064B70B5DC
:10CF8000040003604068002804D0056908F0DEFE54
:10CF90002800F8E7200070BDB4650200064B70B5AC
:10CFA000040003604068002804D0056908F0CEFE44
:10CFB0002800F8E7200070BD48640200064B70B5F9
:10CFC000040003604068002804D0056908F0BEFE34
:10CFD0002800F8E7200070BD58640200064B70B5C9
:10CFE000040003604068002804D0056908F0AEFE24
:10CFF0002800F8E7200070BD68640200064B70B599
:10D00000040003604068002804D0056908F09EFE13
:10D010002800F8E7200070BD78640200064B70B568
:10D02000040003604068002804D0056908F08EFE03
:10D030002800F8E7200070BD1465020070B5FC30D0
:10D04000046C0500002C0DD1242008F083FE064B53
:10D0500044608361054B8460C46004614461C461C1
:10D0600003602864286C70BD14650200FC65020032
:10D07000104B10B5083303600F4B0400C3608023CE
:10D080000E4A5B00C250C018FCF7C8FF20000C4BD2
:10D09000B830E360FFF7B2FF2000AC30FFF79EFF2F
:10D0A0002000A030FFF78AFF20006C30FFF776FFEA
:10D0B000200010BD2866020070660200DC670200D6
:10D0C00088640200F8B505000400AC356B68AB60FD
:10D0D000A868002807D0C36821009847AB68002BD8
:10D0E000F4D01B69F3E72500B0352868002804D088
:10D0F000066908F02BFE3000F8E72200FC212860CA
:10D10000583213780B40137023005C3318702000E2
:10D110000A3007F080FD2000343007F07CFD606E9F
:10D12000002804D0056908F011FE2800F8E7250062
:10D13000983560662868002804D0066908F006FE65
:10D140003000F8E72600A43628603568002D05D0A9
:10D150002F69280008F0FAFD3D00F7E72000356050
:10D1600029000C226C3008F044FE2000074BE567D4
:10D17000A36729000C22803008F03BFE2300044AFC
:10D180008C33903428001A602560F8BDC548020031
:10D19000B7480200444AF0B50600C260A022434BE3
:10D1A0001636083303600100002342820400320077
:10D1B00085B003718360037483823531137001324B
:10D1C0009142FBD1802580222000AD00D201F3776F
:10D1D0003584110000933830002300F039FF23001C
:10D1E0002100403303931A002B0000255F31157096
:10D1F00001328A42FBD1039AFC21D57722006032AA
:10D200001380137920000B401371230068331D70C5
:10D21000274B2567E3660C220021783008F0E9FDF2
:10D220002300270088331D60224B0837FB678437B3
:10D2300000210C22380008F0DCFD1F4B1F4AFB6068
:10D240002300A0333D611A601D4A5D60DA601D4A0B
:10D250001D619A61DD61300007F0DDFC039807F085
:10D26000DAFC194B601CE3602300C4331D705D7051
:10D270009D70FF3002F058FB8C235B00E5502300CB
:10D280001933FF335D618023104A5B00E2502300B5
:10D2900001222000FE3352425A86023B9D63DD6329
:10D2A0001D6405B0F0BDC046886402002866020017
:10D2B00048640200C5480200B748020058640200F2
:10D2C000686402007864020070660200DC67020095
:10D2D00070B5074C2368002B07D1A020400008F050
:10D2E00039FD0500FFF756FF2560206870BDC04678
:10D2F0001425002070B50C220D000021040008F058
:10D3000078FD00232361024B25602000E36070BD9F
:10D31000D348020070B500250400254B85800360CA
:10D32000244BC5608360244B85614361234B456278
:10D330000362234B0563C362224BC56383632900E9
:10D340004430FFF7D7FF200029005830FFF7D2FF05
:10D35000200029006C30FFF7CDFF1B4B220023601B
:10D3600023008032F83320C29342FCD126001D00F6
:10D37000E936FF36280008220021083508F039FD7B
:10D38000AE42F7D18E2300229B00E11804C6B142C1
:10D39000FCD18E2300219B00E2540C4B0C4AE31875
:10D3A000A218198002339A42FBD1200070BDC046FA
:10D3B00074650200246502003465020044650200C1
:10D3C0005465020064650200FC6602003A02000037
:10D3D0006202000010B5040001F0A0FF034B1B68BF
:10D3E000002B01D02000984710BDC0461C2500200E
:10D3F000F0B58BB0050001F0FFF90020FFF768FFE2
:10D40000036807001B6998473B6804009B69380064
:10D4100098473B6806005B6A3800984703002888F5
:10D4200010380B2862D803F053F8063E6161615B47
:10D43000616161676179AF882000390007F01CFEE7
:10D4400022006B7B583201931378A8799C46022303
:10D4500061460B43137004AB1F80012304AA937031
:10D46000D07013006A461279E91D9A722B000622C9
:10D47000163305A8099308F0A0FC29000B2004AB83
:10D4800006220E31C01808F098FC94346368A3603B
:10D49000A06800282AD0C36804A99847A368002B75
:10D4A000F4D01B69F3E720002F49AF8807F0E4FDB3
:10D4B0002200022058321378A9798343137004ABF9
:10D4C0001F809970A0346368A360A06800280DD005
:10D4D000C36804A99847A368002BF4D01B69F3E73D
:10D4E0005B69A888A91D002B00D09847290030004F
:10D4F00007F09CFE0BB0F0BD636E002BF6D0AF7949
:10D50000A366A06E0028F1D0C36839009847A36EC7
:10D51000002B01D1636EF3E71B69F1E70122694635
:10D520000D27AB7BEF571A4001925A07920FDB0889
:10D530000A720B730622E91D04A808F03EFC6A4635
:10D54000127904ABDA716A46127A9F711A726A46CE
:10D55000127B20005A722B000F3307938C348030DB
:10D56000236804A99847C1E7FFFF00000723D728D5
:10D5700002D9024B186000231800704718250020BC
:10D58000014B18607047C0461C2500201FB5802243
:10D59000A323D205DB00D3580820DB0700D40530D5
:10D5A0001C4B48221C4902F00DF900280AD080B219
:10D5B000002807D1BFF34F8F184B194ADA60BFF329
:10D5C0004F8FFEE7002302A8029301330370154B2F
:10D5D0001B68436007F0AEFB002802D0072005B0AF
:10D5E00000BD684607F0A4FB0028F7D1694607F0A4
:10D5F0009DFB0028F2D10C4802F014F980B20028FB
:10D60000EDD10A4802F018F980B20028E7D100F005
:10D610006FFCE4E7394D02002025002000ED00E01A
:10D620000400FA0518250020F1D30100D5D301002C
:10D6300080B2002807D1BFF34F8F034B034ADA6053
:10D64000BFF34F8FFEE7704700ED00E00400FA05DE
:10D6500070B500200D00FFF73BFE03685B6A98473A
:10D660002B780400142B1ED003D8132B0CD00020D1
:10D6700070BD152B1FD0222BF9D16B681888236938
:10D68000002BF4D09847F2E76B68012518889B7847
:10D69000646819005A08DB0629402A405B0F002CF9
:10D6A000E5D0A047E3E76B6818889978A368002B5A
:10D6B000DDD09847DBE76868827813091207120FFC
:10D6C000012A03D0022A0BD0002106E0013BDBB285
:10D6D0000021022B01D8064AD15C0088E368E6E706
:10D6E0000421012BF9D00131022BF6D0ECE7C04622
:10D6F000A46F0200014B18787047C046B72700207E
:10D70000F0B51D000023304F87B000923A78060034
:10D710000C009A4204D101F035FE002803D00B23FF
:10D72000180007B0F0BD002D0ED003A922200395EC
:10D7300007F00AFB002807D006230828F0D011388C
:10D74000434243410433EBE7002302AA1000137065
:10D7500000F0AAFE0028E2D101251C4902220B7824
:10D760002E40AB433343072693430193009B2C4049
:10D7700033409340AC409C46019B02AA1C431C23AF
:10D780009C4363461C430E239B181880104B0C705F
:10D790000393022303AC2371093002AB0522C018A6
:10D7A00008F00BFB21000B4800F0E8FE002807D032
:10D7B00033000428B4D0013B0828B1D00533AFE7CB
:10D7C0003D700300ACE7C046B72700207D20002055
:10D7D00051D60100B827002010B5074800F0A6FF79
:10D7E0000023984206D00733042803D0013B0828C1
:10D7F00000D00533180010BDB8270020002373B5F2
:10D8000001930F4B01AD1B780E0029002B7001F026
:10D81000B3F9041E05D00423052800D007331800EF
:10D8200076BD3100280000F0E3FE23000028F6D08A
:10D8300007230428F3D0013B0828F0D00533EEE796
:10D84000B827002073B5114C0E00050005222100F9
:10D85000684608F0B2FA012E03D0022E10D002233F
:10D860000CE002222378B3439343694628002370D7
:10D8700007F068FA0023984200D00B33180076BDF9
:10D88000012322781343B343EFE7C0467D200020F5
:10D89000094B10B51A7801000923002A09D007485E
:10D8A00000F0DEFE0023984203D003330E2800D0A0
:10D8B0000333180010BDC046B7270020B82700204A
:10D8C000024B0B60092313607047C046A76F02002C
:10D8D00010B504000020FFF7FBFC03681B699847A4
:10D8E0000300F3331C7086235B00C050030000214B
:10D8F000044AFC335A61044A99615A62F43007F0D1
:10D90000B3FF10BD354F0200474F0200012110B593
:10D91000044A080001F0BCFF0023984200D00B33FA
:10D92000180010BDD1D80100F0B593B001900020CF
:10D930000C00FFF7CDFC03685B6A9847FFF7DAFE3F
:10D9400006AB00280ED000221A7105AA0692082202
:10D9500018001A730AAA9A60FFF79AFF002803D0EA
:10D9600013B0F0BD18711873002727732771019B3E
:10D97000BA331B78BB4242D907237B431A00019973
:10D98000BB32CB18BB331B788A180292022B2ED1E4
:10D99000002506AE337BAB4223D9AB000393089B33
:10D9A000AA009958029807F0D1F900281CD0B36852
:10D9B0009C46AB001900237B614402939A000868DF
:10D9C000A368D050029B01332373337B5A1E9542C8
:10D9D00005D00C481B1860469B001B580B6006AB1B
:10D9E0001A730137FFB2C2E70135EDB2D1E72379EF
:10D9F000216802989A00013350502371F1E700200A
:10DA0000AEE7C046FFFFFF3FF0B50A7804009BB0C9
:10DA10000D000220012A08D04B88032A07D1A03B21
:10DA200021499BB210008B4207D91BB0F0BD203BAF
:10DA30001E4A9BB203209342F7D81D4BAA880320AD
:10DA40009A42F2D80AAB009312AB02936A460023C3
:10DA5000260013711373B8363378002B1DD104AF31
:10DA600018220021380008F0C4F92B7838003B70E8
:10DA700033783B726B46FB606B883B82AB887B8262
:10DA800007F07CF902000320002ACED1012358348C
:10DA9000217810000B432370C7E769462000FFF789
:10DAA00043FF0028DBD0C0E7603F0000E03F0000FC
:10DAB000FF3F0000F0B59DB01E006B4604001A70D9
:10DAC000581C0622229D08F078F9002E2ED03288AC
:10DAD00002AB1A8072885A80B2889A80F288DA8003
